:020000040800F2
:10000000E0080020A1060008750400087704000835
:100010007B0400087F04000883040008000000003F
:10002000000000000000000000000000870400083D
:1000300089040008000000008B0400088D040008FB
:10004000BB060008BB060008BB060008BB0600088C
:10005000BB060008BB060008BB060008BB0600087C
:10006000BB060008BB060008BB060008BB0600086C
:10007000BB060008BB060008BB060008BB0600085C
:10008000BB060008BB060008BB060008BB0600084C
:10009000BB060008BB060008BB060008BB0600083C
:1000A000BB060008BB060008BB060008BB0600082C
:1000B000BB060008BB060008BB060008BB0600081C
:1000C000BB060008BB060008BB060008BB0600080C
:1000D000BB060008D1270008BB060008BB060008C5
:1000E000BB060008BB060008BB060008BB060008EC
:1000F000BB060008BB060008BB060008BB060008DC
:10010000BB060008BB060008BB060008BB060008CB
:10011000BB060008BB060008ED0300080904000840
:10012000BB060008BB060008BB060008BB060008AB
:10013000BB060008BB060008BB060008BB0600089B
:10014000BB060008BB060008BB060008BB0600088B
:10015000BB060008BB060008BB060008BB0600087B
:10016000BB060008BB060008BB060008BB0600086B
:10017000BB060008BB060008BB060008BB0600085B
:10018000BB060008BB06000800F002F800F064F8A7
:100190000AA090E8000C82448344AAF10107DA45E2
:1001A00001D100F059F8AFF2090EBAE80F0013F0D0
:1001B000010F18BFFB1A43F001031847B44B0100AD
:1001C000D44B01000A444FF0000C10F8013B13F02F
:1001D000070408BF10F8014B1D1108BF10F8015BA0
:1001E000641E05D010F8016B641E01F8016BF9D193
:1001F00013F0080F1EBF10F8014BAD1C0C1B09D1EA
:100200006D1E58BF01F801CBFAD505E014F8016B5B
:1002100001F8016B6D1EF9D59142D6D370470000ED
:100220000023002400250026103A28BF78C1FBD8FF
:10023000520728BF30C148BF0B607047642911F0D6
:10024000AF80782911F0E880002070471FB512F0C8
:100250001EFF1FBD10B510BD11F03AFB1146FFF790
:10026000F5FF00F009F811F058FB03B4FFF7F2FFB7
:1002700003BC02F04DFA00001FB54FF4A06000F07F
:100280002FFAA82002F0C2F94FF4E13002F04EFA42
:1002900002F0A0FB002002F080FB02E0142002F03C
:1002A00017FA10F0EAFE0028F8D100BF0FF037FE71
:1002B0000028FBD102E0142002F00AFA634A6449E4
:1002C00064480FF07CFE0028F5D107F0B5F906F080
:1002D000EDFF07F023F807F053F807F03DF9A721E9
:1002E00042F20F7003F076FC2F21632003F0C9FC6B
:1002F0002F21632003F011FD5F21632003F059FDDE
:100300005F21632003F0A0FDA72144F61F600CF0DD
:10031000D7FFA72144F61F600DF02FF842F2CF015E
:1003200040F2E73003F081FC40F2DC500DF093F82E
:100330004FF4FA7002F0CCF94FF461700DF094F8BC
:100340004FF4FA7002F0C4F940F23A700DF07AF806
:100350004FF4FA7002F0BCF940F2DC500DF069F88D
:100360004FF4FA7002F0B4F940F2DC503A490860F8
:100370000BE0394800680DF06EF8142002F0A8F97F
:10038000354800681430344908603348006840F646
:1003900092118842EDDB0120009001900290002331
:1003A0001A4619460390184603F099FD0EE02B48B3
:1003B000006818B901202A49086008E02748001D94
:1003C000006818B902202649086000E0EFE700BF86
:1003D0000BE023480068012801D107F06AF92048A2
:1003E0000068022801D10AF080F8F2E710B5012177
:1003F0001C4801F0F4FD012801D11B4908600121CE
:10040000184801F0FDFD10BD10B50121174801F09D
:10041000E6FD012815D116480068401C1449086003
:1004200008460068192802DA06F024FC09E00020DA
:100430000F49086002F0CEFA002002F0AEFA06F092
:1004400019FC0121094801F0DBFD10BD98000020D6
:100450009400002090000020580000202C0241420F
:100460005400002000100040000000200014004054
:100470007C000020704700BFFEE700BFFEE700BF22
:10048000FEE700BFFEE77047704770477047000007
:100490000CB50020019000907648006840F4803050
:1004A0007449086000BF7348006800F40030009091
:1004B0000198401C0190009818B90198B0F5A04F20
:1004C000F1D16C48006800F4003010B101200090B8
:1004D00001E0002000900098012846D16548403096
:1004E000006840F08050634940310860624800680D
:1004F00040F44040604908605E48083000685D494B
:10050000083108600846006840F40040086008466A
:10051000006840F4A05008605848091F0860081F90
:10052000006840F08070091F086000BF51480068F3
:1005300000F000700028F9D040F2057050490860C2
:100540004C480830006820F003004A490831086030
:100550000846006840F00200086000BF45480830C7
:10056000006800F00C000828F8D10CBD10B5454813
:10057000006840F47000434908603E48006840F05D
:1005800001003C49086000203A49083108603948B8
:1005900000683D490840374908603C48091D08602B
:1005A000081F006820F48020091F086000203149DE
:1005B0000C310860FFF76CFF4FF000603149803963
:1005C000086010BD70B50020002202230024022123
:1005D000284D08352D6805F00C0020B1042806D000
:1005E000082834D107E02A4D2A4E356033E02A4DE1
:1005F000284E35602FE01F4D2D1D2D68C5F380540A
:100600001C4D2D1D2D6805F03F0154B1224DB5FB49
:10061000F1F5184E361D3668C6F3881605FB06F24E
:1006200009E01B4DB5FBF1F5124E361D3668C6F3D9
:10063000881605FB06F20F4D2D1D2D68C5F30145EB
:100640006D1C6B00B2FBF3F5124E356003E0104DEC
:10065000104E356000BF00BF064D08352D68C5F34C
:1006600003150E4E705D0B4D2D68C540094E35606B
:1006700070BD000000380240007000400854400780
:10068000003C024088ED00E0FFFFF6FE1030002441
:100690000024F400C000002000127A00C4000020F2
:1006A0000948804709480047FEE7FEE7FEE7FEE706
:1006B000FEE7FEE7FEE7FEE7FEE7FEE70448054942
:1006C000054A064B704700006D05000889010008C7
:1006D000E0020020E0080020E0040020E004002008
:1006E00032490143324A1160704770B5002100233E
:1006F0000F22C4781CB32E4C246804F4E064C4F5C3
:10070000E064C4F30721C1F10404E3B20A41447870
:100710009C40E1B28478144021430C07210E254C03
:1007200005786155047804F01F050124AC40057874
:100730006D11AD0005F1E025C5F8004109E0047830
:1007400004F01F050124AC401B4D0678761145F8D6
:10075000264070BD194A0A400243154B1B1F1A6000
:10076000704739B1124A121D12680243104B1B1D0B
:100770001A6006E00E4A121D126882430C4B1B1DC4
:100780001A607047042808D14FF0E021096941F050
:1007900004014FF0E022116107E04FF0E021096908
:1007A00021F004014FF0E022116170470000FA05CA
:1007B0000CED00E000E400E080E100E080FFFF1FBE
:1007C00010B50121080200F000FE00214FF48070F6
:1007D00000F0FBFD10BD30B502460020002350683C
:1007E000F84C20400D790C6844EA05242043506001
:1007F0009068F54C2040D1E903542C438D682C437C
:100800004D7944EA450420439060D06A20F470009A
:100810000C7D641EE4B2234340EA0350D06230BD35
:1008200000210160017141718160C160016101219C
:10083000017570470021E54A1168E54A1140D0E989
:1008400000231A4383681A43C3681A431143E14AD9
:10085000C2F8041370470021016041608160C160EB
:10086000704721B1826842F00102826003E0826831
:1008700022F00102826070470A4600214168D64B8F
:1008800019401143416070474162826270470A46D5
:100890000021416821F01F0111434160704738B1C8
:1008A000CA49096841F40001CA4AC2F8041306E0C3
:1008B000C649096821F40001C64AC2F8041370470A
:1008C00038B1C249096841F48001C24AC2F8041330
:1008D00006E0BE49096821F48001BE4AC2F804134B
:1008E0007047F0B504460D4600200021092D11DDAA
:1008F000E068A5F10A0606EB4607072606FA07F1A7
:100900008843A5F10A0606EB460603FA06F10843FA
:10091000E0600CE0206905EB4507072606FA07F1C1
:10092000884305EB450603FA06F108432061072AD0
:100930000FDA606B561E06EB86071F2606FA07F1D4
:100940008843561E06EB860605FA06F108436063E7
:1009500022E00D2A0FDA206BD61F06EB86071F2632
:1009600006FA07F18843D61F06EB860605FA06F15C
:100970000843206310E0E06AA2F10D0606EB86074B
:100980001F2606FA07F18843A2F10D0606EB86063C
:1009900005FA06F10843E062F0BD816841F080414C
:1009A00081607047014600208A6802F080420AB1E7
:1009B000012000E00020704721B1826842F480628B
:1009C000826003E0826822F480628260704721B115
:1009D000826842F00202826003E0826822F0020232
:1009E0008260704710B50A4600210023416821F457
:1009F0006041531E41EA4331416010BD21B142685C
:100A000042F40062426003E0426822F40062426005
:100A100070470146C86C80B270476C48001D006882
:100A2000704721B1826842F48072826003E082687C
:100A300022F480728260704721B1826842F40072B1
:100A4000826003E0826822F400728260704738B1ED
:100A50005E49096841F400515E4AC2F8041306E099
:100A60005A49096821F400515A4AC2F804137047E0
:100A7000F0B504461546002000220026092911DDA4
:100A8000E068A1F10A0707EB470C072707FA0CF209
:100A90009043A1F10A0707EB470703FA07F2104357
:100AA000E0600CE0206901EB410C072707FA0CF22B
:100AB000904301EB410703FA07F210432061A06B5A
:100AC000C0F30156EF1C06F1010CA7EB0C0707EB76
:100AD000870C1F2707FA0CF29043EF1C06F1010C5C
:100AE000A7EB0C0707EB870701FA07F21043A06397
:100AF000F0BD10B50A4600210023816B21F440119E
:100B0000531E41EA0351816310BD08B500230093D1
:100B10000090009B0B440093009B1A6008BD0A469E
:100B20000021816821F470211143816070470A46D9
:100B30000021816821F44011114381607047816870
:100B400041F4800181607047014600208A6802F408
:100B500080020AB1012000E00020704721B1426804
:100B600042F48062426003E0426822F480624260A4
:100B7000704721B1426842F48052426003E042680B
:100B800022F480524260704708B50246002000906F
:100B9000009201F12800009B184400900098006822
:100BA00080B208BD10B50B460021D9B2012404FA69
:100BB00001F11AB144680C43446002E044688C437C
:100BC000446010BDFFFEFFFCFDF7FFC004230140A1
:100BD000E030FCFF00200140FFFD3FFF0246002007
:100BE00013680B400BB1012000E000207047CA439E
:100BF0000260704770B502460020002300240B12EB
:100C0000556801268E4005EA060415681D4015B199
:100C10000CB1012000E0002070BD00220A12D34375
:100C20000360704710B504469848844208D10121FA
:100C3000084600F086FB0021012000F082FB76E0F0
:100C40009348844208D10121022000F07AFB002160
:100C5000022000F076FB6AE08E48844208D1012130
:100C6000042000F06EFB0021042000F06AFB5EE02F
:100C70008948844208D10121082000F062FB00214C
:100C8000082000F05EFB52E08448844208D1012134
:100C9000102000F056FB0021102000F052FB46E02F
:100CA0007F48844208D10121202000F04AFB002126
:100CB000202000F046FB3AE07A48844208D1012126
:100CC000402000F03EFB0021402000F03AFB2EE0E7
:100CD0007548844208D10121802000F032FB0021B8
:100CE000802000F02EFB22E07048844208D10121D0
:100CF000801500F026FB0021A01500F022FB16E075
:100D00006B48844208D10121401500F01AFB0021F4
:100D1000601500F016FB0AE06648844207D1012105
:100D2000001500F00EFB0021201500F00AFB10BD9D
:100D3000F0B50A4600210023002400BF3DE0012554
:100D400005FA01F3156805EA03049C4234D10568ED
:100D50004F000326BE40B543056015794E00B540EF
:100D60000668354305601579012D02D01579022DED
:100D700016D185684F000326BE40B543856055797E
:100D80004E00B540866835438560456801268E4033
:100D9000B5434560456896798E40B6B235434560A7
:100DA000C5684F000326BE40B543C560D5794E00E7
:100DB000B540C6683543C560491C1029BFD3F0BD96
:100DC0004FF6FF7101600021017141718171C171A4
:100DD000704708B54FF480320092009A0A4300929F
:100DE000009AC261C161009AC261C2690092C2697F
:100DF000009208BD0246002013690B400BB1012090
:100E000000E0002070470146086980B27047024642
:100E1000002053690B400BB1012000E00020704717
:100E20000146486980B2704701837047418370472B
:100E30000AB1018300E04183704741617047426914
:100E40004A4042617047F0B5002300244D07ED0E83
:100E500002FA05F3CE1000F1200555F826504E0792
:100E6000F70E0F26BE40B543CF1000F1200646F81E
:100E70002750CE1000F1200555F8265045EA03040E
:100E8000CE1000F1200545F82640F0BD00000240DC
:100E90000004024000080240000C02400010024022
:100EA0000014024000180240001C024000200240D2
:100EB0000024024000280240F948006840F0010088
:100EC000F74908600020F64908310860F4480068D6
:100ED000F4490840F2490860F348091D0860F348E6
:100EE000EF4984310860F0481038091D0860EC486B
:100EF000006820F48020EA4908600020E8490C31AD
:100F00000860E7498C31086070470021E44A921C70
:100F1000117011460870704710B501460022002379
:100F200000204A11012A02D1DD4C236808E0022A80
:100F300003D1DB4C7034236802E0D94C743423684D
:100F400001F01F02012494401C400CB1012000E07C
:100F5000002010BD38B5002000900024002500BFFF
:100F60003120FFF7D9FF05460098401C00900098FB
:100F7000B0F5A04F01D0002DF2D03120FFF7CCFF0B
:100F800008B1012400E00024204638BD01460020BD
:100F9000C34A106820F0F80040EAC10010607047B2
:100FA000C349086070470021BD4A7032117011704A
:100FB000012802D004280AD104E00121B84A703285
:100FC000117005E00521B64A7032117000E000BFD3
:100FD00000BF7047B7490860704770B5049C41EA8C
:100FE00082150126C6EB530645EA0645054345EA48
:100FF0000465AB4E361D356070BDAD49086670475F
:10100000820142EA0172A64B84331A607047A849F4
:101010008866704710B5830143EA016343EA0273AF
:101020009F4C8834236010BDA14908677047A049D0
:10103000C864704702460020994B0833186820F0B6
:10104000EC6042EA01031843954B0833186070477F
:1010500002460020924B0833186820F0784042EA9C
:10106000010318438E4B0833186070470146002077
:101070008B4A0832106820F0030008431060704764
:1010800087480830006800F00C00704701460020D7
:10109000834A0832106820F0F0000843106070475F
:1010A000014600207E4A0832106820F4E0500843D0
:1010B0001060704701460020794A0832106820F419
:1010C000604040EAC10010607047F0B50021002286
:1010D0000024022500260223714F08373F6807F0DD
:1010E0000C0121B1042905D0082937D105E0724F40
:1010F000076036E0714F076033E0694F3F1D3F687E
:10110000C7F38056664F3F1D3F6807F03F036EB13F
:101110006A4FB7FBF3F7DFF888C10CF1040CDCF879
:1011200000C0CCF3881C07FB0CF40CE0624FB7FB4B
:10113000F3F7DFF86CC10CF1040CDCF800C0CCF361
:10114000881C07FB0CF4564F3F1D3F68C7F301474F
:101150007F1C7D00B4FBF5F7076002E0564F076087
:1011600000BF00BF4E4F08373F6807F0F001090984
:10117000534F7A5C0768D7404760494F08373F684C
:1011800007F4E051890A4E4F7A5C4768D740876080
:10119000434F08373F6807F46041490B484F7A5C7A
:1011A0004768D740C760F0BD002100F44072B2F537
:1011B000407F0AD13A4A0832116821F4F811414AB5
:1011C00002401143364A08321160354A70321268C3
:1011D000C0F30B031A43324B70331A607047354922
:1011E00044390860704733494039086070473649D0
:1011F0000860704701460020294A8C32106820F0B0
:101200001F004A1E1043264A8C3210607047014668
:101210000020234A8C32106820F4F8504A1E40EA1D
:1012200002201F4A8C3210607047014600201C4A81
:101230008C32106820F4401008431060704701465B
:101240000020174A8C32106820F4400008431060D8
:10125000704701460020124A8C32106820F440305A
:1012600008431060704719490860704739B10C4A4B
:101270003032126802430A4B30331A6006E0084AE3
:10128000303212688243064B30331A607047F9B12E
:10129000034A343212680243014B34331A601CE0B3
:1012A00000380240FFFFF6EA103000240030002032
:1012B00000004742800E47420024F40000127A00EA
:1012C000D4000020FFFCFF0F5C014742E0114742C1
:1012D0008F4A126882438E4B1A60704739B18C4A2C
:1012E000121D126802438A4B1B1D1A6006E0884AD1
:1012F000121D12688243864B1B1D1A60704739B15C
:10130000834A0C3212680243814B0C331A6006E0A8
:101310007F4A0C32126882437D4B0C331A6070474F
:1013200039B17B4A103212680243794B10331A608C
:1013300006E0774A103212688243754B10331A6008
:10134000704739B1724A243A12680243704B243B09
:101350001A6006E06E4A243A126882436C4B243BC2
:101360001A60704739B16A4A203A12680243684BE2
:10137000203B1A6006E0664A203A12688243644BBA
:10138000203B1A60704739B1614A1C3A1268024327
:101390005F4B1C3B1A6006E05D4A1C3A12688243B0
:1013A0005B4B1C3B1A60704739B1594A143A1268BA
:1013B0000243574B143B1A6006E0554A143A126830
:1013C0008243534B143B1A60704739B1504A103A6C
:1013D000126802434E4B103B1A6006E04C4A103A2A
:1013E000126882434A4B103B1A60704739B1484A31
:1013F0001C3212680243464B1C331A6006E0444A12
:101400001C3212688243424B1C331A60704739B158
:101410003F4A2032126802433D4B20331A6006E0F7
:101420003B4A203212688243394B20331A6070479E
:1014300039B1374A243212680243354B24331A60DB
:1014400006E0334A243212688243314B24331A6057
:10145000704739B12E4A2C32126802432C4B2C3380
:101460001A6006E02A4A2C3212688243284B2C3339
:101470001A60704739B1264A303212680243244B51
:1014800030331A6006E0224A303212688243204B21
:1014900030331A607047012808D11D493C31096872
:1014A00041F008011A4A3C32116007E018493C310A
:1014B000096821F00801164A3C321160704739B1C1
:1014C000134A273A12780243114B273B1A7006E061
:1014D0000F4A273A127882430D4B273B1A70704708
:1014E0000B484030006840F0807009494031086086
:1014F000704701460020064A283A12680A400AB19D
:10150000012000E00020704701492639087070472B
:101510003438024010B50446FE48844208D1012107
:101520000846FFF752FF00210120FFF74EFF9DE024
:10153000B4F1804F08D101210846FFF735FF0021A3
:101540000120FFF731FF91E0F348844208D10121E7
:101550000220FFF729FF00210220FFF725FF85E089
:10156000EE48844208D101210420FFF71DFF00212D
:101570000420FFF719FF79E0E948844208D10121EE
:101580000820FFF711FF00210820FFF70DFF6DE095
:10159000E448844208D101211020FFF705FF002113
:1015A0001020FFF701FF61E0DF48844208D10121EC
:1015B0002020FFF7F9FE00212020FFF7F5FE55E07F
:1015C000DA48844208D101210220FFF7FEFE002103
:1015D0000220FFF7FAFE49E0D548844209D10121F3
:1015E0000804FFF7F2FE00214FF48030FFF7EDFE14
:1015F0003CE0D048844209D101214804FFF7E5FED0
:1016000000214FF40030FFF7E0FE2FE0CA4884428B
:1016100009D101218804FFF7D8FE00214FF4802072
:10162000FFF7D3FE22E0C548844208D101214020C3
:10163000FFF7BAFE00214020FFF7B6FE16E0C048D3
:10164000844208D101218020FFF7AEFE00218020D6
:10165000FFF7AAFE0AE0BB48844207D101218015AA
:10166000FFF7A2FE0021A015FFF79EFE10BD00228D
:101670000288A84B98420ED0AC4B98420BD0B0F1E8
:10168000804F08D0A44B984205D0A44B984202D07A
:10169000A34B984204D14FF68F731A404B881A43DC
:1016A000A04B984207D0A04B984204D04FF6FF437E
:1016B0001A400B891A4302804B68C3620B8803856A
:1016C000944B984202D0994B984201D18B7A038671
:1016D0000123838270474FF0FF3141600021018078
:1016E00001814180817270470185828270470A467C
:1016F000002101884FF68F73194011430180704714
:1017000041627047C16270470146486A70470146AE
:10171000088D704721B1028842F00202028004E085
:1017200002884FF6FD731A400280704721B102888B
:1017300042F00402028004E002884FF6FB731A4074
:101740000280704721B1028842F08002028004E0EA
:1017500002884FF67F731A400280704702884FF666
:10176000F7731A40028002880A4302807047028899
:101770004FF6FF431A40028002880A4302807047F6
:1017800021B1028842F00102028004E002884FF693
:10179000FE731A400280704770B5002400220023B7
:1017A000058C4FF6FE7635400584028C8388048BC9
:1017B0004FF68F752C40B51E2C400D882C43751E9E
:1017C0002A408D892A434D882A43524DA84202D08F
:1017D000564DA84213D14FF6F7752A40CD892A43BA
:1017E0004FF6FB752A408D882A434FF6FF652B4044
:1017F0004FF6FF552B400D8A2B434D8A2B43838098
:1018000004838D684563028470BD70B50024002296
:101810000023058C4FF6EF7635400584028C8388D3
:10182000048B48F6FF752C404FF6FF452C400D8881
:101830004FF6FF7606EA05252C434FF6DF752A4062
:101840008D8906EA05152A434D8806EA05152A43BF
:10185000304DA84202D0354DA8421DD14FF67F75BC
:101860002A40CD894FF6FF7606EA05152A434FF642
:10187000BF752A408D8806EA05152A434FF6FF35C5
:101880002B404FF2FF752B400D8A06EA85052B434E
:101890004D8A06EA85052B43838004838D68856322
:1018A000028470BD70B5002400220023058C4FF621
:1018B000FF6635400584028C8388848B4FF68F75D4
:1018C0002C404FF6FC752C400D882C434FF6FF55ED
:1018D0002A408D894FF6FF7606EA05252A434D8872
:1018E00006EA05252A430B4DA84202D00F4DA84217
:1018F00038D14FF2FF752A40CD894FF6FF7606EAC0
:1019000005252A434FF6FF352A408D8806EA05252E
:101910002A4319E000000140000400400008004094
:10192000000C004000100040001400400004014082
:1019300000400140004401400048014000180040C0
:10194000001C0040002000404EF6FF752B404DF675
:10195000FF752B400D8A06EA05152B434D8A06EAD2
:1019600005152B43838084838D68C563028470BD15
:1019700070B5002200230024058C4EF6FF7635401A
:101980000584038C8488828B48F6FF752A404FF6C5
:10199000FF452A400D884FF6FF7606EA05252A43C3
:1019A0004DF6FF752B408D8906EA05352B434D8892
:1019B00006EA05352B43FE4DA84202D0FD4DA84254
:1019C00008D14BF6FF752C400D8A4FF6FF7606EADC
:1019D00085152C43848082838D680564038470BDE3
:1019E000002101804180818081608181C1810182EB
:1019F0004182704770B50346002000241846183015
:101A000001258D40ACB21D8CA5431D8409B1082968
:101A10000AD100EB610005684FF68F76354005600E
:101A20000568154305600FE00D1FC5F34E052844FA
:101A3000056848F6FF763540056005684FF6FF7685
:101A400006EA02263543056070BD41637047816335
:101A50007047C1637047016470470A460021018BDB
:101A60004FF68F7319401143018370470A460021D6
:101A7000018B48F6FF7319404FF6FF7303EA022308
:101A80001943018370470A460021818B4FF68F73FB
:101A900019401143818370470A460021818B48F623
:101AA000FF7319404FF6FF7303EA02231943818342
:101AB00070470A460021018B4FF6F7731940114316
:101AC000018370470A460021018B4FF2FF731940D2
:101AD0004FF6FF7303EA02231943018370470A4656
:101AE0000021818B4FF6F7731940114381837047B2
:101AF0000A460021818B4FF2FF7319404FF6FF73A6
:101B000003EA02231943818370470A460021018BAF
:101B10004FF6FB7319401143018370470A460021B9
:101B2000018B4FF6FF3319404FF6FF7303EA022390
:101B30001943018370470A460021818B4FF6FB73DE
:101B400019401143818370470A460021818B4FF66B
:101B5000FF3319404FF6FF7303EA022319438183D1
:101B600070470A460021018B4FF67F7319401143DD
:101B7000018370470A460021018BC1F30E014FF625
:101B8000FF7303EA02231943018370470A460021C9
:101B9000818B4FF67F7319401143818370470A464A
:101BA0000021818BC1F30E014FF6FF7303EA02237C
:101BB0001943818370470A460021018C4FF6FD735B
:101BC00019401143018470470A460021018C4FF6E9
:101BD000F77319401143018470470A460021018CB4
:101BE0004FF6DF7319404FF6FF7303EA02131943F0
:101BF000018470470A460021018C4FF67F7319401B
:101C00004FF6FF7303EA02131943018470470A4633
:101C10000021018C4FF6FF5319404FF6FF7303EA82
:101C200002231943018470470A460021018C4FF2B8
:101C3000FF7319404FF6FF7303EA0223194301842F
:101C400070470A460021018C4DF6FF7319404FF68C
:101C5000FF7303EA023319430184704730B5002350
:101C600001248C40A3B2048C9C430484048C02FAAB
:101C700001F5ADB22C43048430BD30B500230424FB
:101C80008C40A3B2048C9C430484048C02FA01F5BA
:101C9000ADB22C43048430BD828B4FF2FF331A4027
:101CA0008283828B4FF6FF7303EA01231A438283F8
:101CB0007047F0B50C461546002100220026078C1F
:101CC0004EF6FF7C07EA0C070784818B028C4FF6E7
:101CD000FF7707EA043640F6FF4739404FF6FF77B3
:101CE00007EA052739434FF6FF7707EA03373943F9
:101CF00045F6FF773A4046F480573A4381830284A1
:101D0000F0BD828B4FF6F3731A408283828B0A43B5
:101D100082837047F0B50C4615460021002200264C
:101D2000078C4FF6FF6C07EA0C070784818B028C47
:101D30004FF6FF7707EA04264FF60C7739404FF647
:101D4000FF7707EA03172F4339434FF2FF573A4013
:101D500046F480773A4381830284F0BD028B4FF2D0
:101D6000FF331A400283028B4FF6FF7303EA01230D
:101D70001A4302837047F0B50C4615460021002235
:101D80000026078C4FF6EF7C07EA0C070784018BCF
:101D9000028C4FF6FF7707EA041640F6FF473940FA
:101DA0004FF6FF7707EA033739434FF6FF7703E033
:101DB000000001400004014007EA052739434FF6BF
:101DC0005F773A4046F010073A4301830284F0BD42
:101DD000028B4FF6F3731A400283028B0A4302838D
:101DE0007047F0B50C46154600210022068C4FF6D0
:101DF000FE773E400684018B028C4FF60C76314014
:101E00007E1C06EA03162E4331434FF6F576324028
:101E100044F00106324301830284F0BD70B50546EB
:101E20000C46208850B92389A28861882846FFF78C
:101E3000D8FFE1882846FFF7CBFF25E0208804285B
:101E40000AD12389A28861882846FFF794FFE18898
:101E50002846FFF783FF17E0208808280AD1238946
:101E6000A28861882846FFF755FFE1882846FFF7DA
:101E700048FF09E02389A28861882846FFF719FFF7
:101E8000E1882846FFF708FF70BD002101804180EE
:101E9000012181800021C180018170472DE9F0413D
:101EA00005460C4600260127608808B9022600E096
:101EB0000026A088012801D1022700E00127208800
:101EC000A0B92389A28861882846FFF78AFFE188A4
:101ED0002846FFF77DFF23893A4631462846FFF71B
:101EE0004AFFE1882846FFF739FF13E02389A288DB
:101EF00061882846FFF73FFFE1882846FFF72EFF5D
:101F000023893A4631462846FFF76BFFE188284689
:101F1000FFF75EFFBDE8F0810146486B7047014660
:101F2000886B70470146C86B70470146086C704764
:101F30000A884B881A438B881A43CB881A430B892B
:101F40001A434B891A438B891A43A0F844207047DF
:101F50000021018041808180C18001814181818196
:101F6000704731B1B0F8442042F40042A0F8442058
:101F700005E0B0F84420C2F30E02A0F844207047F8
:101F800021B1828842F00402828004E082884FF608
:101F9000FB731A408280704721B1828842F00102AF
:101FA000828004E082884FF6FE731A408280704778
:101FB0001AB183890B43838102E083898B43838138
:101FC00070478182704702460020138A0B400BB194
:101FD000012000E000207047CA430282704730B5FC
:101FE0000246002000230024158A05EA0103958992
:101FF00005EA010413B10CB1012000E0002030BD5E
:10200000CA430282704741EA0203A0F84830704791
:102010001AB183890B43838102E083898B438381D7
:10202000704721B1828842F00802828004E08288F1
:102030004FF6F7731A408280704701894FF6F872A5
:102040001140018170470A46002101894FF68F73C4
:10205000194011430181704730B504460D462946A9
:102060002046FFF7F0FF208940F00700208130BDB7
:102070002DE9F04104460D4616461F46602D06D157
:102080003B46012231462046FFF775FE05E03B4600
:10209000012231462046FFF7A4FE29462046FFF7DD
:1020A000D2FF208940F007002081BDE8F08130B5E3
:1020B0000C4600210189C9B24FF6FF7505EA0325D8
:1020C000154325432943018130BD2DE9F0410546E3
:1020D0000E4617469846002443463A46314628465F
:1020E000FFF7E5FF2C894FF6F870044044F0070431
:1020F0004FF68F70044044F070042C81BDE8F081ED
:10210000F0B504460D4616461F463B463246294664
:102110002046FFF7CCFF208940F480402081F0BDAD
:1021200082884FF68F731A40828082880A438280A9
:10213000704702894FF6F8731A40028102890A43F8
:102140000281704702894FF67F731A40028102892B
:102150000A4302817047F0B50C4615461E46002121
:10216000002200230189028B038C4FF6F877394057
:1021700021434FF6FC473A4040F201173A434FF6ED
:10218000DD773B404FF6FF7707EA06172F433B43C7
:10219000018102830384F0BD21B1828842F0800274
:1021A000828004E082884FF67F731A4082807047F5
:1021B000A0F850107047000010B50446FA48844259
:1021C00008D101211020FFF700F900211020FFF7AE
:1021D000FCF857E0F548844209D101214804FFF793
:1021E000E3F800214FF40030FFF7DEF84AE0F04852
:1021F000844209D101218804FFF7D6F800214FF469
:102200008020FFF7D1F83DE0EA48844209D101215E
:10221000C804FFF7C9F800214FF40020FFF7C4F805
:1022200030E0E548844209D101210805FFF7BCF8F8
:1022300000214FF48010FFF7B7F823E0DF48844215
:1022400008D101212020FFF7C0F800212020FFF74E
:10225000BCF817E0DA48844209D101218807FFF76A
:10226000A3F800214FF08040FFF79EF80AE0D54820
:10227000844207D101214005FFF796F8002160054F
:10228000FFF792F810BD2DE9FF4705460E460024E2
:10229000A14600BFA046B08900B100BF2C8A24F43B
:1022A0004054F08804432C82AC8941F20C60844392
:1022B000B08831890843718908430443AC81AC8AF2
:1022C00024F44074B0890443AC826846FEF7FDFEF6
:1022D000B548854202D0B948854202D1DDF80C905C
:1022E00001E0DDF80890A88900F4004040B109EB56
:1022F000C90000EB091031684900B0FBF1F707E0B5
:1023000009EBC90000EB091031688900B0FBF1F757
:102310006420B7FBF0F004012009642101FB107870
:10232000A88900F4004040B1322000EBC800B0FBA7
:10233000F1F000F00700044308E0322000EB081041
:102340006421B0FBF1F000F00F0004432C81BDE8E4
:10235000FF874FF41651016000218180C180018107
:102360000C21418100218181704710B50246002077
:10237000108A20F470600B884C8823438C88234398
:10238000CC8823431843108210BD00210180418076
:102390008180C180704721B1828942F400528281DC
:1023A00004E082894DF6FF731A4082817047028BE8
:1023B00002F47F420283028B0A430283704721B1F9
:1023C000828942F40042828103E08289C2F30E02D4
:1023D0008281704721B1828A42F40062828204E0E5
:1023E000828A4FF2FF731A4082827047C1F308025B
:1023F0008280704701468888C0F308007047028ACF
:102400004FF6F0731A400282028A0A430282704732
:1024100021B1828942F00202828104E082894FF672
:10242000FD731A408281704782894FF2FF731A4010
:10243000828182890A4382817047028A4FF6DF7364
:102440001A400282028A0A430282704721B1028A3C
:1024500042F48042028204E0028A4BF6FF731A4083
:1024600002827047818941F001018181704721B169
:10247000828A42F00802828204E0828A4FF6F77371
:102480001A4082827047028BD2B20283028B42EAE8
:1024900001220283704721B1828A42F020028282A7
:1024A00004E0828A4FF6DF731A408282704721B1BE
:1024B000828A42F01002828204E0828A4FF6EF7331
:1024C0001A4082827047828A4FF6FB731A408282DA
:1024D000828A0A438282704721B1828A42F00202D4
:1024E000828204E0828A4FF6FD731A40828270472E
:1024F0001AB1838A0B43838202E0838A8B438382EF
:102500007047F0B50346002400260025002040F661
:102510006A17B94200D100BF1846C1F3421401F056
:102520001F06012707FA06F5012C01D10C3004E043
:10253000022C01D1103000E014301AB107682F438B
:10254000076002E00768AF430760F0BD0246002065
:10255000B1F5007F00D100BF13880B400BB1012003
:1025600000E00020704701F40072B2F5007F00D156
:1025700000BFCA430280704770B5024600240023A2
:102580000025002040F66A16B14200D100BFC1F319
:10259000421501F01F03012606FA03F3012D13D1A2
:1025A0009689334017E000000010014000440040CD
:1025B00000480040004C0040005000400014014022
:1025C00000780040007C0040022D02D1168A334082
:1025D00001E0968A33400C12012606FA04F41688AC
:1025E000344013B10CB1012000E0002070BD10B5E3
:1025F0000022002340F66A14A14200D100BF0A1253
:1026000001249440A3B2DC43048010BD10B50446FD
:102610006FF00400FEF7B6F8E11704EB5171C1F357
:10262000C701394A11701046007800EB4001C1EB38
:10263000C0104FF6FF7101EAC0003449088010BD98
:102640000146314A12784A434FF0E0235A61002292
:102650009A611A46126942F001021A6100BF4FF0F6
:10266000E022106900F001021AB100F48032002A61
:10267000F5D04FF0E022126922F001024FF0E02382
:102680001A6100229A6170470146204A12884A4323
:102690004FF0E0235A6100229A611A46126942F013
:1026A00001021A6100BF4FF0E022106900F0010240
:1026B0001AB100F48032002AF5D04FF0E0221269FE
:1026C00022F001024FF0E0231A6100229A61704764
:1026D00070B504464FF4077094FBF0F0C6B24FF4A7
:1026E000077094FBF0F100FB114085B205E04FF458
:1026F0000770FFF7C9FF701EC6B2002EF7D115B1E3
:102700002846FFF7C1FF70BDE4000020E60000206E
:10271000014600BF704700BF4C4A128802F04002D9
:10272000002AF9D0C2B2494B9A80704710B588B0E0
:10273000044601210846FEF799FD01211020FEF70D
:10274000EFFD072209214248FEF77DFB07220A21FF
:102750003F48FEF778FB4FF4C060069002208DF8EA
:102760001C008DF81D0000208DF81E0001208DF842
:102770001F0006A93648FEF7DBFA02940020ADF8E8
:102780000C00ADF80E00ADF81000ADF814000C20F0
:10279000ADF8120002A92D48FFF775FD01212B4865
:1027A000FFF7F9FD012240F225512848FFF7A9FE65
:1027B00025208DF8040003208DF805008DF8060013
:1027C00001208DF8070001A8FDF78FFF08B010BDAC
:1027D00010B540F225511D48FFF7CEFE10B31B483F
:1027E000FFF708FEC4B21B48008800F40040C8B9D7
:1027F0001848008800F4804060B10A2C03D0002003
:102800001449088020E01348008840F40040114932
:10281000088019E00D2C06D10E48008840F4804055
:102820000C49088010E00B480088C0F30D000A49ED
:102830000C5408480088401C064908800846008857
:10284000C72801DD0020088010BD000000100140F5
:1028500000000240EC000020A401002070B50446F6
:102860000E462EB14FF48041F848FEF7DDFA04E041
:102870004FF48041F548FEF7D9FA00251BE04FF4EC
:102880000041F348FEF7D2FA04F0800028B14FF47B
:102890008061F048FEF7C8FA04E04FF48061ED482B
:1028A000FEF7C4FA4FF40041E948FEF7BDFA6006AE
:1028B000040E681CC5B2082DE1DB4FF48041E348EB
:1028C000FEF7B2FA70BD07E040F2375100BF0A1EB2
:1028D000A1F10101FBD1401E0028F5D1704770B570
:1028E00004460825E902D948FEF79EFA00BF4FF4D6
:1028F0000041D748FEF79AFA00BF1AE004F08000C2
:1029000028B14FF48061D348FEF78EFA04E04FF40B
:102910008061D048FEF78AFA4FF40041CC48FEF7B8
:1029200083FA00BF4FF40041C948FEF77FFA600602
:10293000040E281EA5F10101CDB2DFD170BD70B526
:1029400004460825E902C148FEF770FA2903C04889
:10295000FEF76CFA00BF1AE004F0800028B14FF4D3
:102960008061BC48FEF760FA04E04FF48061B9482A
:10297000FEF75CFA4FF40041B548FEF755FA00BF88
:102980004FF40041B248FEF751FA6006040E281ECB
:10299000A5F10101CDB2DFD170BD70B506460024AE
:1029A00015E004F1B001C8B2FFF7C9FF0120FFF73D
:1029B000C6FF1020FFF7C3FF002504E03046FFF7F5
:1029C0008EFF681CC5B2802DF8DB601CC4B2082CD9
:1029D000E7DB70BD1CB501211A20FEF747FC4FF460
:1029E0000040009001208DF8040000208DF80600C2
:1029F00002208DF8050001208DF8070069469448F3
:102A0000FEF796F94FF4A060009069469148FEF7F2
:102A10008FF94FF48040009069468C48FEF788F9A2
:102A20004FF400418A48FEF7FFF94FF4807189485E
:102A3000FEF7FCF93220FFF746FF4FF4807185481E
:102A4000FEF7F2F90021AE20FFF708FF0021D520A4
:102A5000FFF704FF00218020FFF700FF0021A820DE
:102A6000FFF7FCFE00213F20FFF7F8FE0021D320F6
:102A7000FFF7F4FE00210846FFF7F0FE002140209A
:102A8000FFF7ECFE00218D20FFF7E8FE0021142067
:102A9000FFF7E4FE00212020FFF7E0FE00210220E6
:102AA000FFF7DCFE0021A120FFF7D8FE0021C8209F
:102AB000FFF7D4FE0021DA20FFF7D0FE002112201C
:102AC000FFF7CCFE00218120FFF7C8FE0021EF2098
:102AD000FFF7C4FE0021D920FFF7C0FE0021F1203E
:102AE000FFF7BCFE0021DB20FFF7B8FE00214020ED
:102AF000FFF7B4FE0021A420FFF7B0FE0021A620BE
:102B0000FFF7ACFE0021AF20FFF7A8FE0020FFF783
:102B100044FF1CBD70B504460D4605F1B001C8B2B6
:102B2000FFF70DFF102141EA1410FFF708FF04F032
:102B30000F00FFF704FF70BD70B5002415E004F12D
:102B4000B001C8B2FFF7FBFE0120FFF7F8FE10202E
:102B5000FFF7F5FE002504E00020FFF7C0FE681C2B
:102B6000C5B2802DF8DB601CC4B2082CE7DB70BD59
:102B700010B504462046FFF7E2FE10BD70B50446CE
:102B80002546E11704EB11710911A4EB0111C8B23C
:102B9000FFF7D5FE2546E11704EB1171091110313D
:102BA000C8B2FFF7CCFE70BD10B504462020FFF779
:102BB000C6FE2046FFF7C3FE10BD70B505460C46A5
:102BC0002120FFF7BCFE2846FFF7B9FE2046FFF79D
:102BD000B6FE70BD70B505460C462220FFF7AFFE6D
:102BE0002846FFF7ACFE2046FFF7A9FE70BD10B5E2
:102BF000044644F04000FFF7A2FE10BD10B50446A5
:102C00008120FFF79CFE2046FFF799FE10BD10B50E
:102C100004468D20FFF793FE44F01000FFF78FFE6F
:102C200010BD10B5044644F0A000FFF788FE10BDAB
:102C300010B5044644F0A400FFF781FE10BD10B5A6
:102C4000044644F0A600FFF77AFE10BD00100240D3
:102C500000040240000C024010B50446A820FFF713
:102C60006EFE2046FFF76BFE10BD10B5044644F023
:102C7000AE00FFF764FE10BD10B5044644F0B0008E
:102C8000FFF75DFE10BD10B5044644F0C000FFF72D
:102C900056FE10BD10B50446D320FFF750FE204667
:102CA000FFF74DFE10BD10B50446D520FFF747FED7
:102CB0002046FFF744FE10BD10B50446D920FFF7AB
:102CC0003EFE2046FFF73BFE10BD10B50446DA205D
:102CD000FFF735FE44F00200FFF731FE10BD10B5DE
:102CE0000446DB20FFF72BFE2046FFF728FE10BD31
:102CF00010B5E320FFF723FE10BD2DE9F047044691
:102D0000884615464FF00009002600274146204618
:102D1000FFF700FF1CE0E85D203800F0FF097E2C83
:102D200004DD002408F1010000F0FF08002609E09E
:102D300009EB4901FE4A02EB4101885DFFF7CFFD37
:102D4000701CC6B2062EF3DBA01DC4B2781CC7B23D
:102D5000E85D0028DFD1BDE8F0872DE9F0470646A1
:102D60000F46904600250024A14631E018F80900DE
:102D70002038C5B2782E02DD0026781CC7B239464D
:102D80003046FFF7C7FE002407E004EB0511E94ACF
:102D9000505CFFF7A4FD601CC4B2082CF5DB781C66
:102DA000C1B23046FFF7B6FE002408E004EB05117F
:102DB0000831E04A505CFFF792FD601CC4B2082C59
:102DC000F4DB06F10800C6B209F1010000F0FF09CA
:102DD00018F809000028C9D1BDE8F0872DE9F047AF
:102DE00081460F4690460024002601256BE0002412
:102DF000012513E0D048005D18F8061088420BD179
:102E0000CD49601C095C701C18F80000814203D198
:102E1000C4EBC400450005E0A01CC4B2C648005D78
:102E20007F28E7DC00BFB9F1760F03DD4FF0000922
:102E3000781CC7B239464846FFF76CFE012D1FD0FB
:102E400039464846FFF766FE002406E0BB49485D68
:102E5000FFF745FD6D1C601CC4B20E2CF6DB781C20
:102E6000C1B24846FFF756FE002406E0B349485D6C
:102E7000FFF735FD6D1C601CC4B20E2CF6DB1CE0A8
:102E8000701CC6B239464846FFF744FE002404E0F1
:102E90000020FFF724FD601CC4B2102CF8DB781C66
:102EA000C1B24846FFF736FE002404E00020FFF7D9
:102EB00016FD601CC4B2102CF8DB09F10E0000F006
:102EC000FF09B01CC6B218F8060000288FD1BDE873
:102ED000F087F8B506460F461546002427E0285D22
:102EE0007F2814DD285D8DF80000601C285C8DF8BB
:102EF000010000208DF802006A4639463046FFF78F
:102F00002CFF06F10E00C6B2A01CC4B20FE0285D73
:102F10008DF8000000208DF801006A4639463046E1
:102F2000FFF71BFF06F10800C6B2601CC4B2285DA3
:102F30000028D4D1F8BDF8B505460C461646E00683
:102F4000040E8DF8006000208DF801006A462946C5
:102F50002046FFF7D2FEF8BDF8B507460E461546E7
:102F60000024F006060E27E0285D7F2814DD285D8A
:102F70008DF80000601C285C8DF8010000208DF8A1
:102F800002006A4639463046FFF728FF06F10E0078
:102F9000C6B2A01CC4B20FE0285D8DF8000000206E
:102FA0008DF801006A4639463046FFF7A6FE06F165
:102FB0000800C6B2601CC4B2285D0028D4D1F8BD98
:102FC0002DE9FC4107460E46144698460025002090
:102FD00000900190F006060E42F21070B4FBF0F083
:102FE0000A21B0FBF1F201FB12008DF800004FF452
:102FF0007A70B4FBF0F0B0FBF1F201FB12008DF837
:1030000001006420B4FBF0F0B0FBF1F201FB120010
:103010008DF802000A20B4FBF0F0B0FBF1F201FBE6
:1030200012008DF803000A20B4FBF0F100FB114000
:103030008DF8040000BF07E01DF805003030C0B275
:103040000DF80500681CC5B2052DF5DBC8F10500BB
:103050006946421839463046FFF77FFEBDE8FC81DD
:103060002DE9F0472DED068B84B081468A46B0EEFF
:10307000408AF0EE608A904601260020019002907E
:103080000390012500249FED2E0BB0EE409AF0EE48
:10309000609A00279FED2A0B53EC102B51EC180B74
:1030A0000FF052FC09D251EC180B0FF07BF941ECF8
:1030B0001A0B0FF0C1FB044604E051EC180B0FF0A3
:1030C000BBFB044620460FF014FC41EC1A0B53ECFA
:1030D000182B0FF0A9FD41EC190B9FED1B0B53ECC6
:1030E000102B51EC190B0FF06BFC41EC1A0B0FF08D
:1030F000D3FB074604E005EB85004500701CC6B213
:103100000A2094FBF0F090FBF5F00028F3D142F296
:10311000107094FBF0F00A2190FBF1F201FB120019
:10312000C0B28DF804004FF47A7094FBF0F00FE019
:10313000A2300108BB330108CA320108DB320108A2
:103140000000000000000000000000000088C340F4
:1031500090FBF1F201FB1200C0B28DF80500642073
:1031600094FBF0F090FBF1F201FB1200C0B28DF87D
:1031700006000A2094FBF0F090FBF1F201FB120034
:10318000C0B28DF807000A2094FBF0F100FB11405B
:10319000C0B28DF808002E208DF809004FF47A7027
:1031A000B7FBF0F00A21B0FBF1F201FB12008DF841
:1031B0000A006420B7FBF0F0B0FBF1F201FB120053
:1031C0008DF80B000A20B7FBF0F0B0FBF1F201FB29
:1031D00012008DF80C000A20B7FBF0F100FB117013
:1031E0008DF80D00002108F1060001AA11540025F8
:1031F00005E001A8405D303001A948556D1C0A2D3D
:10320000F7DB1FED310B53EC102B51EC180B0FF0CB
:103210009BFB06D2701CC6B22D20C6F1050101AA87
:1032200050542E208DF80900002108F1060001AA53
:103230001154C6F1050001A9421849465046FFF74E
:103240008CFD04B0BDEC068BBDE8F0872DE9F04F96
:103250002DED068B83B081460F46B0EE408AF0EE2E
:10326000608A924698464FF0010B00200090019032
:103270000290012400251FED4E0BB0EE409AF0EEB7
:10328000609A0026F806070E51EC180B0FF0D4FADE
:10329000054628460FF044FB41EC1A0B53EC182B63
:1032A0000FF0C2FC41EC190B1FED590B53EC102B26
:1032B00051EC190B0FF084FB41EC1A0B0FF0ECFAF8
:1032C000064606E004EB840044000BF1010000F028
:1032D000FF0B0A20B5FBF0F0B0FBF4F00028F1D1B1
:1032E00042F21070B5FBF0F00A21B0FBF1F201FBE5
:1032F00012008DF800004FF47A70B5FBF0F0B0FBCF
:10330000F1F201FB12008DF801006420B5FBF0F032
:10331000B0FBF1F201FB12008DF802000A20B5FBB0
:10332000F0F0B0FBF1F201FB12008DF803002E204B
:103330008DF805004FF47A70B6FBF0F0B0FBF1F2B7
:1033400001FB12008DF806006420B6FBF0F0B0FB24
:10335000F1F201FB12008DF807000A20B6FBF0F035
:10336000B0FBF1F201FB12008DF808000A20B6FB59
:10337000F0F100FB11608DF80900002108F1060052
:103380000DF80010002406E01DF804003030C0B233
:103390000DF80400641C0A2CF6DB2E208DF80500C5
:1033A000002108F106000DF80010CAF10500694679
:1033B000421849463846FFF7D0FC03B0BDEC068BF7
:1033C000BDE8F08F70B50026002411E021460020F2
:1033D000FFF7A0FB002507E03146761CF84A505C59
:1033E000FFF77DFA681CC5B2802DF5DB601CC4B206
:1033F000082CEBDB70BDF8B506460F4614460020DE
:10340000009002250DE00A2094FBF0F100FB114032
:103410003030C0B20DF805000A2094FBF0F0C4B2C1
:103420006D1E002DEFDA6A4639463046FFF795FCEF
:10343000F8BDF8B506460F46144600200090022558
:103440000DE00A2094FBF0F100FB11403030C0B2D7
:103450000DF805000A2094FBF0F0C4B26D1E002D9B
:10346000EFDA6A4639463046FFF747FCF8BD2DE9EA
:10347000F04105460F46164600BF05EB45014906DB
:10348000080E3946FFF746FB00240AE006F110015A
:1034900001EB4101CB4A02EB4101085DFFF71FFA46
:1034A000641C062CF2DBBDE8F0812DE9F0410546F5
:1034B0000E4614460A2094FBF0F100FB1140C7B2FF
:1034C0000A2094FBF0F000F0FF08691CC8B23A46ED
:1034D0003146FFF7CCFF424631462846FFF7C7FF8B
:1034E000BDE8F0812DE9F04705460E4614466420FC
:1034F000B4FBF0F000F0FF096420B4FBF0F100FB36
:1035000011400A21B0FBF1F80A20B4FBF0F100FBF6
:1035100011474A4631462846FFF7A9FF691CC8B241
:1035200042463146FFF7A3FFA91CC8B23A463146CE
:10353000FFF79DFFBDE8F0872DE9F05F05468B465C
:1035400016463446002C00DA64424FF47A7094FB3D
:10355000F0F0C7B24FF47A7094FBF0F100FB114029
:10356000642190FBF1F000F0FF08642094FBF0F17F
:1035700000FB11400A2190FBF1F000F0FF090A2046
:1035800094FBF0F100FB114000F0FF0A3A46594667
:103590002846FFF76CFF691CC8B242465946FFF740
:1035A00066FFA91CC8B24A465946FFF760FFE91CEE
:1035B000C8B252465946FFF75AFFBDE8F09F2DE9C1
:1035C000F05F05460E46144642F21070B4FBF0F070
:1035D000C7B242F21070B4FBF0F100FB11404FF49F
:1035E0007A71B0FBF1F000F0FF080846B4FBF0F18F
:1035F00000FB11406421B0FBF1F000F0FF096420F2
:10360000B4FBF0F100FB11400A21B0FBF1FA0A20F3
:10361000B4FBF0F100FB114B3A4631462846FFF768
:1036200026FF691CC8B242463146FFF720FFA91C9D
:10363000C8B24A463146FFF71AFFE91CC8B25246E3
:103640003146FFF714FF291DC8B25A463146FFF72D
:103650000EFFBDE8F09F70B504460E462EB14FF444
:1036600080415948FDF7E0FB04E04FF480415648A3
:10367000FDF7DCFB00251BE04FF400415348FDF74C
:10368000D5FB04F0800028B14FF480615048FDF76D
:10369000CBFB04E04FF480614D48FDF7C7FB4FF4CE
:1036A00000414A48FDF7C0FB6006040E681CC5B225
:1036B000082DE1DB70BD70B5002419E004F1B00104
:1036C000C8B20021FFF7C7FF00210846FFF7C3FF7C
:1036D00000211020FFF7BFFF002505E00121002099
:1036E000FFF7B9FF681CC5B2802DF7DB601CC4B2C0
:1036F000082CE3DB70BD70B504460D4605F1B00142
:10370000C8B20021FFF7A7FF102141EA14100021E1
:10371000FFF7A1FF04F00F0141F001000021FFF7C6
:103720009AFF70BD2DE9F04107460E469046A8F17C
:103730002000C5B27F2F02DD0027B01CC6B2314683
:103740003846FFF7D8FF002408E004EB0511214AB2
:10375000505C0121FFF77FFF601CC4B2082CF4DB32
:10376000701CC1B23846FFF7C6FF002409E004EB25
:1037700005110831174A505C0121FFF76CFF601CEE
:10378000C4B2082CF3DBBDE8F0812DE9F04104461A
:103790000F46154600260EE0AA5D39462046FFF783
:1037A000C1FF04F10800C4B2782C02DD0024B81C6B
:1037B000C7B2701CC6B2A85D0028EDD1BDE8F0818B
:1037C000AB390108A2300108001002400004024099
:1037D000000C0240BB3301082DE9F04107460E46BC
:1037E000154631463846FFF786FF002408E0EB4ACD
:1037F00002EB8511085D0121FFF72DFF601CC4B2AB
:10380000102CF4DB701CC1B23846FFF774FF0024A3
:103810000AE06900491CE14A02EB4111085D0121FF
:10382000FFF719FF601CC4B2102CF2DBBDE8F08179
:1038300010B52DED028BFFF73EFF002211461B2035
:10384000FFF7CAFF012200212D20FFF7C5FF02224A
:1038500000213F20FFF7C0FF032200215120FFF786
:10386000BBFF042202211220FFF7B6FF052202212E
:103870002420FFF7B1FF062202214820FFF7ACFF0A
:10388000072202215A20FFF7A7FFC5A2042100202A
:10389000FFF77BFFC3A206210020FFF776FFC2A23D
:1038A00004216C20FFF771FFC0A206216C20FFF7F6
:1038B0006CFFBDA204213620FFF767FFBBA20621E3
:1038C0003620FFF762FFBA4800880FF029F841EC74
:1038D000180B0222B0EE480AF0EE680A47210420D5
:1038E000FFF7BEFBB3A220210220FFF735FBB24851
:1038F00000880FF015F841EC180B0222B0EE480AD0
:10390000F0EE680A47210620FFF7AAFBBDEC028B08
:1039100010BD10B52DED028BFFF7CDFE0022114634
:103920001B20FFF759FF012200212D20FFF754FF34
:10393000022200213F20FFF74FFF032200215120E8
:10394000FFF74AFF042202211220FFF745FF05225C
:1039500002212420FFF740FF062202214820FFF722
:103960003BFF072202215A20FFF736FF93A20421D2
:103970000020FFF70AFF92A206210020FFF705FFB3
:1039800089A204216C20FFF700FF88A206216C2089
:10399000FFF7FBFE84A204213620FFF7F6FE83A288
:1039A00006213620FFF7F1FE814800880EF0B8FFAF
:1039B00041EC180B0222B0EE480AF0EE680A4721EB
:1039C0000420FFF74DFB7C4800880EF0A9FF41EC76
:1039D000180B0222B0EE480AF0EE680A47210620D2
:1039E000FFF73EFBBDEC028B10BD10B52DED028B39
:1039F000FFF761FE002211461B20FFF7EDFE0122BA
:103A000000212D20FFF7E8FE022200213F20FFF7D2
:103A1000E3FE032200215120FFF7DEFE04220221F3
:103A20001220FFF7D9FE052202212420FFF7D4FE41
:103A3000062202214820FFF7CFFE072202215A204A
:103A4000FFF7CAFE5FA204210020FFF79EFE5EA2E0
:103A500006210020FFF799FE53A204216C20FFF7F6
:103A600094FE52A206216C20FFF78FFE4EA2042185
:103A70003620FFF78AFE4DA206213620FFF785FE8D
:103A80004B4800880EF04CFF41EC180B0222B0EEC0
:103A9000480AF0EE680A47210420FFF7E1FA464899
:103AA00000880EF03DFF41EC180B0222B0EE480AF0
:103AB000F0EE680A47210620FFF7D2FABDEC028B30
:103AC00010BD10B52DED028BFFF7F5FD002211465C
:103AD0001B20FFF781FE012200212D20FFF77CFE35
:103AE000022200213F20FFF777FE03220021512010
:103AF000FFF772FE042202211220FFF76DFE05225D
:103B000002212420FFF768FE062202214820FFF749
:103B100063FE072202215A20FFF75EFE2BA204213A
:103B20000020FFF732FE2AA206210020FFF72DFE1B
:103B30001DA204216C20FFF728FE1CA206216C2088
:103B4000FFF723FE18A204213620FFF71EFE17A25E
:103B500006213620FFF719FE154800880EF0E0FE1A
:103B600041EC180B0222B0EE480AF0EE680A472139
:103B70000420FFF775FA104800880EF0D1FE41ECE2
:103B8000180B0222B0EE480AF0EE680A4721062020
:103B9000FFF766FABDEC028B10BD0000AB3D0108DB
:103BA000493100005631000041000000560000007D
:103BB000EE0000205F000000F60000204932000007
:103BC00056320000493300005633000049340000EB
:103BD000563400007FB505460C4601211020FDF744
:103BE0008EFB0295ADF804400020ADF80600ADF85C
:103BF0000C0001A9FE48FDF73AFD00220121FC4816
:103C0000FEF7D6F90021FA48FDF7BAFD36208DF807
:103C1000000000208DF8010001208DF802008DF8D1
:103C200003006846FCF761FD7FBD7FB505460C4685
:103C300001212020FDF763FB0295ADF80440002030
:103C4000ADF80600ADF80C0001A9EA48FDF70FFD3C
:103C500001221146E748FEF7ABF90121E548FDF7DF
:103C60008FFD37208DF8000000208DF80100022024
:103C70008DF8020001208DF803006846FCF735FD41
:103C80007FBD30B58BB004460D4601210802FDF71B
:103C900036FB01212020FDF7E9FA09221146D6481A
:103CA000FDF7D1F84FF40070099002208DF828003C
:103CB00003208DF8290000208DF82A0001208DF8BE
:103CC0002B0009A9CC48FDF733F8A8B2ADF81800CD
:103CD0000020ADF81A000794ADF8200006A9C748E7
:103CE000FDF7C5FC6020ADF804000120ADF806002A
:103CF0000020ADF8100001A9C048FDF74DFD0821D6
:103D0000BE48FDF7D6FE0121BC48FDF71BFD012191
:103D1000BA48FDF735FD0BB030BD30B58BB0044669
:103D20000D4601218020FDF7EAFA01212020FDF750
:103D30009DFA09220821B048FDF785F84FF48070FC
:103D4000099002208DF8280003208DF8290000201A
:103D50008DF82A0001208DF82B0009A9A648FCF750
:103D6000E7FFA8B2ADF818000020ADF81A000794DC
:103D7000ADF8200006A9A248FDF779FC6020ADF857
:103D800004000120ADF806000020ADF8100001A9E4
:103D90009B48FDF701FD08219948FDF78AFE0121A6
:103DA0009748FDF7CFFC01219548FDF7E9FC0BB0E2
:103DB00030BD30B58BB004460D4601210804FDF737
:103DC000AFFA01211020FDF751FA032205218D4899
:103DD000FDF739F82020099002208DF828000320F3
:103DE0008DF8290000208DF82A0001208DF82B0085
:103DF00009A98448FCF79CFFA8B2ADF81800002080
:103E0000ADF81A000794ADF8200006A97E48FDF72A
:103E10002EFC6020ADF804000120ADF80600002063
:103E2000ADF8100001A97848FDF7B6FC08217648E6
:103E3000FDF73FFE01217448FDF784FC0121724823
:103E4000FDF79EFC0BB030BD30B58BB004460D467F
:103E500001210804FDF764FA01211020FDF706FA9C
:103E6000032206216748FCF7EEFF4020099002205C
:103E70008DF8280003208DF8290000208DF82A00F5
:103E800001208DF82B0009A95E48FCF751FFA8B26C
:103E9000ADF818000020ADF81A000794ADF8200026
:103EA00006A95948FDF7E3FB6020ADF804000120A6
:103EB000ADF806000020ADF8100001A95248FDF74A
:103EC000A4FC08215048FDF7FDFD01214E48FDF7F7
:103ED00039FC01214C48FDF753FC0BB030BD2DE9F6
:103EE000F05F04468B4615461E460AAF97E88007EA
:103EF00021464248FDF7A9FD59464148FDF7A5FD79
:103F000029464148FDF7A1FD31463F48FDF79FFD99
:103F1000012F06D101203D49086000203C49C1F82D
:103F2000A802781C30B900203849086001203849BF
:103F3000C1F8A802B8F1010F07D1012033490C39AB
:103F4000086000203249C1F8AC0208F1010038B91C
:103F500000202E490C39086001202D49C1F8AC021F
:103F6000B9F1010F06D101202A49086000202A4931
:103F7000C1F8800209F1010030B90020254908602C
:103F800001202549C1F88002BAF1010F07D10120B3
:103F90002049091D086000201F49C1F88C020AF160
:103FA000010038B900201B49091D086001201A4989
:103FB000C1F88C02BDE8F09F2DE9F0470446894620
:103FC00015461E46DDE9087831460C48FDF73DFDF3
:103FD00029460B48FDF739FD49460B48FDF735FDED
:103FE00021460948FDF733FD012F25D1002015E0BA
:103FF0000010004000140040001402400020004067
:10400000001C00400010024000400140B00243424A
:10401000000043428402414200004142FD490C3904
:1040200008600120FC49C1F8AC020020FB4908608F
:104030000120FB49C1F88C02781C70B90120F549B8
:104040000C3908600020F449C1F8AC020120F349A2
:1040500008600020F249C1F88C02B8F1010F0ED1BE
:104060000020EC4908600120EB49C1F8A8020020BB
:10407000EA49091F08600120E949C1F8800208F1F6
:10408000010070B90120E34908600020E249C1F84D
:10409000A8020120E149091F08600020E049C1F899
:1040A0008002BDE8F08770B505460C462946DD481C
:1040B000FDF7CBFC2946DC48FDF7C7FC012C0ED1EF
:1040C0000120D44908600020D349C1F8A80201208A
:1040D000D249091F08600020D149C1F88002601C44
:1040E00070B90020CB4908600120CB49C1F8A80273
:1040F0000020CA49091F08600120C949C1F880028F
:1041000070BD70B505460C462946C848FDF79DFCB4
:104110002946C548FDF79BFC012C0ED10120BD4965
:104120000C3908600020BC49C1F8AC020120BB4931
:1041300008600020BA49C1F88C02601C70B90020E8
:10414000B4490C3908600120B349C1F8AC02002021
:10415000B24908600120B249C1F88C0270BD1FB598
:10416000B3480068012811D1B1480830006868B927
:10417000B0480068012809D10090019002903C23CA
:104180001A46194603901846FFF7A9FEA84800688A
:10419000012817D1A64808300068012812D1A44888
:1041A0000C30006870B9A348006801280AD100905B
:1041B0000190029019233722194603901046FFF709
:1041C0008EFE03E19A4808300068012818D198480B
:1041D0000C300068012813D19648001F006878B998
:1041E00094480830006801280AD10090019002909C
:1041F00014233222194603901046FFF770FEE5E0C3
:104200008B480830006801281ED189480C300068AE
:10421000012819D18748001F0068012814D185485A
:10422000006888B983480830006801280CD1801ED6
:104230000121CDE9001032231A46CDE902101946BA
:104240001846FFF74CFEC1E07948083000680128A5
:104250001FD177480C30006801281AD17548001F1B
:104260000068012815D173480068012811D17148F0
:104270000830006868B94FF0FF300121CDE9001027
:1042800050232822CDE9021019461046FFF727FED9
:104290009CE067480068012818D16548001D006847
:1042A000A0B963480C30006801280FD16148001F95
:1042B000006801280AD1009001900290372314224F
:1042C000194603901046FFF70AFE7FE05848006841
:1042D000C8B9574808300068012814D154480C3038
:1042E000006801280FD15348006801280BD1811EB6
:1042F000CDE9001028234622CDE9021019461046C8
:10430000FFF7EDFD62E04A4800684B49D1F83412EE
:1043100008444949D1F8381208444749D1F83C12B9
:1043200008444649D1F81C1208444449D1F82012E7
:1043300008444249D1F82812084441490968084410
:104340004049096808444049096808443F490968E8
:1043500008443F49096808443E49096808443E4901
:10436000096808440E280BD30120009001900290A8
:104370000F231A46194603901846FFF7B0FD25E0B3
:104380002B480068012821D12948001D0068012818
:104390001CD1274808300068012817D124480C3068
:1043A0000068012812D12348001F006801280DD1A0
:1043B00020480068012809D1009001900290142340
:1043C0001A46194603901846FFF789FD1FBD1FB511
:1043D00017480068012841D11548001D00680128D0
:1043E0003CD113480830006898B91248001F006893
:1043F000012833D10F48006801282FD10090019087
:10440000029028231A46194603901846FFF767FDC5
:10441000BDE323E0B0024342000043428802414230
:10442000000041420020004000400140001C0040CC
:104430003082424220024242008042420000424218
:104440006000002064000020680000206C00002054
:10445000700000207400002078000020FE480068F2
:1044600060BBFD480068FD49D1F830120844FB49A3
:10447000D1F834120844F949D1F838120844F74900
:10448000D1F83C120844F649D1F81C120844F4490A
:10449000D1F820120844F249D1F82812084407281C
:1044A0000CD10120811ECDE900101E233C22CDE954
:1044B000021019461046FFF712FD68E3E64800684F
:1044C00080BBE548001D006860BBE3480068E34925
:1044D000D1F830120844E149D1F834120844DF49D8
:1044E000D1F838120844DD49D1F83C120844DC49BF
:1044F000D1F81C120844DA49D1F820120844D849EE
:10450000D1F82812084406280DD10120811ECDE9DA
:1045100000101E233C22CDE9021019461046FFF779
:10452000DEFC34E3FFE7CC480068A0BBCA48001DAE
:10453000006880BBC8480830006860BBC648006897
:10454000C649D1F830120844C449D1F8341208449D
:10455000C249D1F838120844C049D1F83C12084485
:10456000BF49D1F81C120844BD49D1F820120844B3
:10457000BB49D1F82812084405280DD10120811E1D
:10458000CDE900101E233C22CDE902101946104649
:10459000FFF7A5FCFBE2FFE7AF48001D006860BB2A
:1045A000AD480068AD49D1F830120844AB49D1F8A4
:1045B00034120844A949D1F838120844A749D1F85F
:1045C0003C120844A649D1F81C120844A449D1F869
:1045D00020120844A249D1F82812084407280CD117
:1045E0000120811ECDE900101E233C22CDE90210DE
:1045F00019461046FFF773FCC9E29748001D006892
:1046000080BB95480830006860BB934800689349B8
:10461000D1F8301208449149D1F8341208448F4936
:10462000D1F8381208448D49D1F83C1208448C491D
:10463000D1F81C1208448A49D1F82012084488494C
:10464000D1F82812084406280DD10120811ECDE999
:10465000001019232D22CDE9021019461046FFF74C
:104660003EFC94E2FFE77C480830006860BB7A4873
:1046700000687A49D1F8301208447849D1F83412E8
:1046800008447649D1F8381208447449D1F83C12EC
:1046900008447349D1F81C1208447149D1F820121A
:1046A00008446F49D1F82812084407280CD101208A
:1046B000811ECDE9001019232822CDE902101946E8
:1046C0001046FFF70CFC62E263480830006880BBCC
:1046D00061480C30006860BB5F4800685F49D1F8F2
:1046E000301208445D49D1F8341208445B49D1F8CE
:1046F000381208445949D1F83C1208445849D1F8B5
:104700001C1208445649D1F8201208445449D1F8E3
:104710002812084406280DD10120811ECDE9001081
:104720001E232822CDE9021019461046FFF7D7FBB9
:104730002DE2FFE7484808300068A0BB46480C302F
:10474000006880BB44481030006860BB4248006885
:104750004249D1F8301208444049D1F83412084493
:104760003E49D1F8381208443C49D1F83C1208447B
:104770003B49D1F81C1208443949D1F820120844A9
:104780003749D1F82812084405280DD10120811E8F
:10479000CDE900101E232822CDE90210194610464B
:1047A000FFF79DFBF3E1FFE72B480C30006898BB57
:1047B00029481030006878BB2A48006860BB26484A
:1047C00000682649D1F8301208442449D1F834123F
:1047D00008442249D1F8381208442049D1F83C1243
:1047E00008441F49D1F81C1208441D49D1F8201271
:1047F00008441B49D1F82812084405280DD1801F10
:104800000121CDE900101E231A46CDE902101946F8
:104810001846FFF764FBBAE1FFE70F481030006865
:10482000B0BB0D4800680D49D1F8301208440B495F
:10483000D1F8341208440949D1F83812084407491C
:10484000D1F83C1208440649D1F81C120844044926
:10485000D1F82012084407E02C82424200804242F4
:10486000000042421C024242FE49D1F8281208448C
:1048700007280ED14FF0FF300121CDE900101E2393
:104880001A46CDE9021019461846FFF728FB7EE1CB
:10489000FFE7F548006880BBF448006868BBF24851
:1048A00010380068F249D1F830120844F049D1F8C4
:1048B00034120844EE49D1F838120844EC49D1F8D2
:1048C0003C120844E749D1F81C120844E549D1F8E4
:1048D00020120844E349D1F82812084406280DD1D3
:1048E000C01F0121CDE9001028231E22CDE90210AE
:1048F00019461046FFF7F3FA49E1FFE7DA48006886
:10490000A0BBDA48006888BBD848001D006868BBB7
:10491000D54810380068D649D1F830120844D44937
:10492000D1F834120844D249D1F838120844D04999
:10493000D1F83C120844CB49D1F81C120844C949AB
:10494000D1F820120844C749D1F828120844052894
:104950000DD1801F0121CDE9001028231922CDE9B6
:10496000021019461046FFF7BAFA10E1FFE7BF48F8
:10497000006870BBBC4810380068BD49D1F83012DF
:104980000844BB49D1F834120844B949D1F8381267
:104990000844B749D1F83C120844B249D1F81C1276
:1049A0000844B049D1F820120844AE49D1F8281281
:1049B000084407280ED14FF0FF300121CDE9001047
:1049C00028231922CDE9021019461046FFF787FA6D
:1049D000DDE0FFE7A548006888BBA448001D00682B
:1049E00068BBA14810380068A149D1F830120844CA
:1049F0009F49D1F8341208449D49D1F8381208442F
:104A00009B49D1F83C1208449649D1F81C1208443D
:104A10009449D1F8201208449249D1F82812084448
:104A200006280DD1C01F0121CDE900103C231E2214
:104A3000CDE9021019461046FFF751FAA7E0FFE74B
:104A40008A480C300068A0BB8848006888BB87484B
:104A5000001D006868BB8448103800688449D1F89C
:104A6000301208448249D1F8341208448049D1F800
:104A7000381208447E49D1F83C1208447949D1F8EB
:104A80001C1208447749D1F8201208447549D1F81E
:104A90002812084405280DD1801F0121CDE90010FE
:104AA0003C231E22CDE9021019461046FFF717FAE3
:104AB0006DE0FFE76D48001D006818B16B480C30D1
:104AC000006870BB6848103800686949D1F8301236
:104AD00008446749D1F8341208446549D1F83812BE
:104AE00008446349D1F83C1208445E49D1F81C12CD
:104AF00008445C49D1F8201208445A49D1F82812D8
:104B0000084407280ED14FF0FF300121CDE90010F5
:104B10003C231E22CDE9021019461046FFF7DFF9AB
:104B200035E0FFE751480C30006880BB4F48001D5E
:104B3000006860BB4C48103800684D49D1F830120D
:104B400008444B49D1F8341208444949D1F8381285
:104B500008444749D1F83C1208444249D1F81C1294
:104B600008444049D1F8201208443E49D1F828129F
:104B7000084406280BD1C01F0121CDE900103C23B9
:104B80001E22CDE9021019461046FFF7A8F91FBDF5
:104B90001FB535480C38006801281FD13248083845
:104BA000006801281AD13048001F006810B12E4853
:104BB000006898B92D48006801280FD12B48001DC6
:104BC000006801280AD100900190029014231A462F
:104BD000194603901846FFF782F91DE22248103863
:104BE000006868BB2048103800682149D1F83012AD
:104BF00008441F49D1F8341208441D49D1F838122D
:104C000008441B49D1F83C1208441649D1F81C123B
:104C100008441449D1F8201208441249D1F8281246
:104C2000084407280CD10120811ECDE900101E2365
:104C30003C22CDE9021019461046FFF750F9D8E39F
:104C4000094810380068D8BB07480C380068B8BB62
:104C50000548103800680649D1F830120844044964
:104C600008E00000000042423C8242421C024242F4
:104C700000804242D1F834120844FE49D1F838127B
:104C80000844FC49D1F83C120844FB49D1F81C12F5
:104C90000844F949D1F820120844F749D1F82812FC
:104CA000084406280DD10120811ECDE900101E23E5
:104CB0003C22CDE9021019461046FFF710F998E39F
:104CC000FFE7EE480068A0BBEC48001D006880BB11
:104CD000EA480830006860BBE8480068E549D1F858
:104CE00030120844E349D1F834120844E149D1F8BC
:104CF00038120844DF49D1F83C120844DE49D1F8A3
:104D00001C120844DC49D1F820120844DA49D1F8D1
:104D10002812084405280DD10120811ECDE900107C
:104D20001E233C22CDE9021019461046FFF7D7F8A2
:104D30005FE3FFE7D148001D006860BBCF48006813
:104D4000CC49D1F830120844CA49D1F83412084489
:104D5000C849D1F838120844C649D1F83C12084471
:104D6000C549D1F81C120844C349D1F8201208449F
:104D7000C149D1F82812084407280CD10120811E0E
:104D8000CDE900101E233C22CDE902101946104641
:104D9000FFF7A5F82DE3B948001D006880BBB748B0
:104DA0000830006860BBB5480068B249D1F83012DD
:104DB0000844B049D1F834120844AE49D1F8381249
:104DC0000844AC49D1F83C120844AB49D1F81C1254
:104DD0000844A949D1F820120844A749D1F828125B
:104DE000084406280DD10120811ECDE900101923A9
:104DF0002D22CDE9021019461046FFF770F8F8E2AF
:104E0000FFE79E480830006860BB9C4800689949ED
:104E1000D1F8301208449749D1F834120844954922
:104E2000D1F8381208449349D1F83C120844924909
:104E3000D1F81C1208449049D1F8201208448E4938
:104E4000D1F82812084407280CD10120811ECDE991
:104E5000001019232822CDE9021019461046FFF749
:104E60003EF8C6E285480830006880BB83480C30B5
:104E7000006860BB814800687E49D1F83012084460
:104E80007C49D1F8341208447A49D1F838120844E0
:104E90007849D1F83C1208447749D1F81C120844EB
:104EA0007549D1F8201208447349D1F828120844F2
:104EB00006280DD10120811ECDE900101E232822D5
:104EC000CDE9021019461046FFF709F891E2FFE715
:104ED0006A4808300068A0BB68480C30006880BB96
:104EE00066481030006860BB644800686149D1F8CA
:104EF000301208445F49D1F8341208445D49D1F8B2
:104F0000381208445B49D1F83C1208445A49D1F898
:104F10001C1208445849D1F8201208445649D1F8C7
:104F20002812084405280DD10120811ECDE900106A
:104F30001E232822CDE9021019461046FEF7CFFFA6
:104F400057E2FFE74D480C30006898BB4B481030E3
:104F5000006878BB4A48006860BB4848006845491B
:104F6000D1F8301208444349D1F834120844414979
:104F7000D1F8381208443F49D1F83C1208443E4960
:104F8000D1F81C1208443C49D1F8201208443A498F
:104F9000D1F82812084405280DD1801F0121CDE940
:104FA00000101E231A46CDE9021019461846FEF7D6
:104FB00096FF1EE2FFE731481030006868BB2F48BB
:104FC00000682C49D1F8301208442A49D1F834122B
:104FD00008442849D1F8381208442649D1F83C122F
:104FE00008442549D1F81C1208442349D1F820125D
:104FF00008442149D1F82812084407280DD14FF060
:10500000FF300121CDE900101E231A46CDE9021020
:1050100019461846FEF763FFEBE1184810300068A8
:1050200080BB1748006868BB144800681149D1F874
:10503000301208440F49D1F8341208440D49D1F810
:10504000381208440B49D1F83C1208440A49D1F8F7
:105050001C1208440849D1F8201208440649D1F826
:1050600028120844062816D1C01F0121CDE90010DE
:10507000282308E000804242000042422C82424243
:105080001C02424207E01E22CDE9021019461046DA
:10509000FEF725FFADE1FE480068A0BBFD480068B3
:1050A00088BBFC48001D006868BBF94810380068E0
:1050B000F949D1F830120844F749D1F834120844BC
:1050C000F549D1F838120844F349D1F83C120844A4
:1050D000F249D1F81C120844F049D1F820120844D2
:1050E000EE49D1F82812084405280DD1801F01216E
:1050F000CDE9001028231922CDE9021019461046E7
:10510000FEF7EDFE75E1FFE7E248006870BBE0489E
:1051100010380068E049D1F830120844DE49D1F86F
:1051200034120844DC49D1F838120844DA49D1F87D
:105130003C120844D949D1F81C120844D749D1F887
:1051400020120844D549D1F82812084407280DD167
:105150004FF0FF300121CDE9001028231922CDE9BD
:10516000021019461046FEF7BAFE42E1C94800682F
:1051700088BBC848001D006868BBC5481038006877
:10518000C549D1F830120844C349D1F83412084453
:10519000C149D1F838120844BF49D1F83C1208443B
:1051A000BE49D1F81C120844BC49D1F82012084469
:1051B000BA49D1F82812084406280DD1C01F012190
:1051C000CDE900103C231E22CDE9021019461046FD
:1051D000FEF785FE0DE1FFE7AE480C300068A0BB8E
:1051E000AC48006888BBAB48001D006868BBA84895
:1051F00010380068A849D1F830120844A649D1F8FF
:1052000034120844A449D1F838120844A249D1F80C
:105210003C120844A149D1F81C1208449F49D1F816
:10522000201208449D49D1F82812084405280DD1C0
:10523000801F0121CDE900103C231E22CDE9021080
:1052400019461046FEF74BFED3E0FFE79148001DDC
:10525000006818B18F480C30006870BB8C4810385B
:1052600000688D49D1F8301208448B49D1F83412C6
:1052700008448949D1F8381208448749D1F83C12CA
:1052800008448649D1F81C1208448449D1F82012F8
:1052900008448249D1F82812084407280ED14FF05B
:1052A000FF300121CDE900103C231E22CDE9021080
:1052B00019461046FEF713FE9BE0FFE775480C30D9
:1052C000006888BB7348001D006868BB70481038D0
:1052D00000687149D1F8301208446F49D1F834128E
:1052E00008446D49D1F8381208446B49D1F83C1292
:1052F00008446A49D1F81C1208446849D1F82012C0
:1053000008446649D1F82812084406280DD1C01F68
:105310000121CDE900103C231E22CDE902101946DF
:105320001046FEF7DCFD64E0FFE759480C380068E2
:105330005949D1F8341208445749D1F83812084471
:105340005549D1F83C1208445449D1F81C1208447C
:105350005249D1F8201208445049D1F82812084483
:105360004F49096808444F49096808444E4909688B
:1053700008444E49096808444D49096808444D49A4
:10538000096808444C49096808440E280BD30120D9
:105390000090019002900F231A4619460390184678
:1053A000FEF79DFD25E03A480C380068012820D121
:1053B00037480838006801281BD13548001F0068AD
:1053C000012816D132480068012812D131480068FE
:1053D00001280ED12F48001D0068012809D1009036
:1053E000019002900F231A46194603901846FEF7C3
:1053F00076FD1FBD1FB52A480068012811D12A4833
:10540000006870B92B48006801280AD1801E0090FE
:10541000019002903C231A46194603901846FEF765
:105420005EFD1F480068012813D11F48006801284D
:105430000FD11E48006860B91E480068012808D1D5
:10544000009019233722194601901046FEF7B4FD4B
:1054500003E115480068012830D11448006801288C
:105460002CD11348006890B912480068012825D152
:1054700011480068012821D1801E01211E233222FB
:10548000CDE9001019461046FEF796FDE5E015E05F
:105490003C8242421C0242420080424200004242A0
:1054A0006000002064000020680000206C000020E4
:1054B000700000207400002078000020FE48006882
:1054C000012819D1FD480068012815D1FC48006861
:1054D000012811D1FB48006870B9FB480068012819
:1054E0000AD1801E012132231A46CDE90010194647
:1054F0001846FEF761FDB0E0EF48006801281AD1B8
:10550000EE480068012816D1ED480068012812D144
:10551000EC48006801280ED1EB48006858B94FF0FC
:10552000FF30012150232822CDE9001019461046F2
:10553000FEF742FD91E0E5480068012813D1E448F8
:10554000006880B9DD48006801280CD1DC4800689B
:10555000012808D1009037231922194601901046DE
:10556000FEF72AFD79E0D9480068A8B9D24800685A
:10557000012811D1D148006801280DD1D148006817
:10558000012809D1811E32231A46CDE9001019469F
:105590001846FEF711FD60E0CE480068CE49D1F80C
:1055A00034120844CC49D1F838120844CA49D1F819
:1055B0003C120844C949D1F81C120844C749D1F823
:1055C00020120844C549D1F828120844BF49096887
:1055D0000844BF4909680844B74909680844B749FD
:1055E00009680844B64909680844B6490968084486
:1055F000B549096808440E280CD34FF0FF300090DD
:10560000019002900F231A46194603901846FEF7A0
:1056100066FC22E0AD48006801281ED1AC48006855
:1056200001281AD1A4480068012816D1A3480068AF
:10563000012812D1A248006801280ED1A1480068B3
:1056400001280AD1801E00900190029014231A466E
:10565000194603901846FEF742FC1FBD1FB59B4834
:105660000068012811D19448006870B99548006815
:1056700001280AD1801E00900190029028231A462A
:10568000194603901846FEF72AFC90480068012846
:1056900015D189480068012811D18848006870B97F
:1056A0008848006801280AD1801E01211E23282273
:1056B000CDE9001019461046FEF77EFCE6E07E4874
:1056C0000068012815D17D480068012811D17C4867
:1056D000006870B97C48006801280AD1801E012149
:1056E0001E232822CDE9001019461046FEF764FC5F
:1056F000CCE071480068012816D170480068012884
:1057000012D16F48006801280ED16E48006858B960
:105710004FF0FF3001211E231A46CDE90010194633
:105720001846FEF749FCB1E06348006801281AD129
:1057300062480068012816D161480068012812D12A
:105740006048006801280ED15F48006858B94FF0E2
:10575000FF30012128231E22CDE9001019461046F2
:10576000FEF72AFC92E059480068012814D15848F5
:10577000006888B95148006801280DD15048006878
:10578000012809D1811E28231E22CDE900101946C7
:105790001046FEF711FC79E04C480068A8B946486D
:1057A0000068012811D14548006801280DD14548FD
:1057B0000068012809D1811E1E232D22CDE9001089
:1057C00019461046FEF7F8FB60E04248006842497F
:1057D000D1F8341208444049D1F8381208443E49FF
:1057E000D1F83C1208443D49D1F81C1208443B4909
:1057F000D1F8201208443949D1F828120844334915
:10580000096808443249096808442B490968084472
:105810002A49096808442A49096808442949096845
:1058200008442949096808440E280CD34FF0FF307A
:1058300000900190029014231A46194603901846CE
:10584000FEF74DFB22E02148006801281ED12048C8
:10585000006801281AD118480068012816D1174895
:105860000068012812D11648006801280ED1154899
:10587000006801280AD1801E00900190029019232F
:105880001A46194603901846FEF729FB1FBD1CB5A2
:105890000E480068012828D10748006828BB08483E
:1058A0000068012821D10748006801281DD1009017
:1058B00014231A46194613E0680000206C000020EB
:1058C000700000207400002078000020600000209C
:1058D0006400002030824242008042420000424286
:1058E00001901846FEF768FB2FE2FD48006800BBF8
:1058F000FB480068FB4909680844FB4909680844FB
:10590000FA4909680844FA4909680844F9490968E4
:105910000844F9490968084406280AD10120811E73
:105920001E232822CDE9001019461046FEF744FB3D
:105930000BE2EB48006818BBEA48006800BBE84887
:105940000068E84909680844E74909680844E749E4
:1059500009680844E64909680844E64909680844B2
:10596000E5490968084405280AD10120811E1E2343
:105970001A46CDE9001019461846FEF71DFBE4E172
:10598000D848006800BBD6480068D6490968084472
:10599000D54909680844D54909680844D4490968C3
:1059A0000844D44909680844D349096808440628CA
:1059B0000AD10120811E1E231A46CDE90010194686
:1059C0001846FEF7F9FAC0E1C648006818BBC64899
:1059D000006800BBC2480068C24909680844C2495F
:1059E00009680844C14909680844C149096808446C
:1059F000C04909680844C0490968084405280AD113
:105A00000120811E1E231A46CDE9001019461846B2
:105A1000FEF7D2FA99E1B348006830BBB24800689B
:105A200018BBB248006800BBAD480068AD490968C2
:105A30000844AD4909680844AC4909680844AC49C0
:105A400009680844AB4909680844AB490968084437
:105A500004280AD10120811E1E232822CDE900102E
:105A600019461046FEF7A8FA6FE19F48006830BB60
:105A70009E48006818BB9E48006800BB98480068B4
:105A80009849096808449849096808449749096889
:105A900008449749096808449649096808449649A2
:105AA0000968084404280AD1401F01211E231A4610
:105AB000CDE9001019461846FEF77EFA45E18B48FD
:105AC000006800BB86480068864909680844864922
:105AD00009680844854909680844854909680844F3
